:020000040800F2
:10C0000008D4012059C2000863860108854D010843
:10C01000658001084DD1000899DB0108000000008F
:10C020000000000000000000000000009DC10008AA
:10C03000D5D9000800000000F1C100089DC001082A
:10C0400073C2000873C2000873C2000873C20008FC
:10C0500073C2000873C2000873C2000873C20008EC
:10C0600073C2000873C2000873C2000873C20008DC
:10C0700073C2000873C2000873C2000873C20008CC
:10C0800073C2000873C2000873C2000873C20008BC
:10C0900073C2000873C2000873C200083DEB0008B9
:10C0A00073C2000873C2000873C2000873C200089C
:10C0B00073C2000873C2000873C2000873C200088C
:10C0C00073C2000873C2000873C2000873C200087C
:10C0D00073C2000851D4010831D5010835D60108D2
:10C0E00073C2000873C2000873C2000873C200085C
:10C0F00073C2000873C2000873C2000873C200084C
:10C1000073C20008C198010873C2000873C2000816
:10C1100073C2000873C2000831CC010873C2000862
:10C1200073C2000873C2000873C2000873C200081B
:10C1300073C2000815E4000873C2000873C2000847
:10C1400073C2000873C2000873C2000873C20008FB
:10C1500073C2000873C2000873C2000873C20008EB
:10C1600073C2000873C2000873C2000873C20008DB
:10C1700073C20008DD86010873C2000800000000D9
:10C1800073C2000873C20008DFF80CD000F03EFC58
:10C19000004800475568020808D401202B4B196855
:10C1A0000868B0E8F04F80F30988BFF36F8F4FF055
:10C1B000000080F311887047000000000648006806
:10C1C000006880F3088862B661B6BFF34F8FBFF393
:10C1D0006F8F00DF00BF00BF08ED00E0DFF80C004C
:10C1E000016841F470010160704700BF88ED00E014
:10C1F000EFF30980BFF36F8F144B1A681EF0100F16
:10C2000008BF20ED108A20E9F04F106008B44FF00D
:10C21000500080F31188BFF34F8FBFF36F8F21F071
:10C2200021F94FF0000080F3118808BC19680868F4
:10C23000B0E8F04F1EF0100F08BFB0EC108A80F38A
:10C240000988BFF36F8F704700BF00BF0800002050
:10C25000EFF3058070470000064880470648004716
:10C26000FEE7FEE7FEE7FEE7FEE7FEE7FEE7FEE7A6
:10C27000FEE7FEE7A5C1010889C1000840EA010305
:10C280009B0703D009E008C9121F08C0042AFAD28C
:10C2900003E011F8013B00F8013B521EF9D2704750
:10C2A000D2B201E000F8012B491EFBD270470022F8
:10C2B000F6E710B513460A4604461946FFF7F0FFA5
:10C2C000204610BD421E12F8013F002BFBD111F891
:10C2D000013B02F8013B002BF9D1704730B5054610
:10C2E0002A460B4612F8010B13F8014B08B1A04285
:10C2F000F8D01CB1002802D06D1CF1E7284630BDF3
:10C3000010B5044604E00B7800F8013B03B1491C6A
:10C31000521EF8D2204610BDCAB2401E10F8011FAE
:10C320008A4202D00029F9D100207047421C10F83F
:10C33000011B0029FBD1801A704710B5002200E0D4
:10C34000521C835C8C5CA34201D1002BF8D1D8B283
:10C35000E1B2401A10BD30B504460020034600E0AB
:10C360005B1C934203D2E05CCD5C401BF8D030BD37
:10C37000034611F8012B00F8012B002AF9D11846C9
:10C38000704730B505460020034600E05B1C934231
:10C3900005D2EC5CC85C201A01D1002CF6D130BD6E
:10C3A00070B500B91068002512E00B4602E0A64205
:10C3B00003D05B1C1C78002CF9D1E3B22B4305D0D1
:10C3C0002CB125B1002100F8011B04E00546401CFA
:10C3D0000678002EE9D11060284670BD004ADFE7DC
:10C3E000F00500202DE9F0410E460546002400E04E
:10C3F000641C285D00F08EF80746305D00F08AF876
:10C40000381A02D1295D0029F2D1BDE8F08170B55A
:10C41000064612F05FF9046805460A2200213046FC
:10C4200000F0CCF82C6070BD00F0004230F000400D
:10C430000AD0C10D01F56071C0F3160042EA015146
:10C44000C20840071143704700200146704701F0C1
:10C45000004330B421F0004150EA010206D00A0D39
:10C46000A2F56072C1F31301002A02DC30BC002087
:10C470007047440F44EAC104C100E01830BC00EB2F
:10C48000C25000F0D3B830B50B4601460020202240
:10C49000012409E021FA02F59D4205D303FA02F5D1
:10C4A000491B04FA02F52844151EA2F10102F1DC31
:10C4B00030BD2DE9F05F0546002092469B46884638
:10C4C0000646814640241BE0284641464746224610
:10C4D00000F0BDFA53465A46C01A914110D3114696
:10C4E0001846224600F0A4FA2D1A67EB01084F46C1
:10C4F00022460120002100F09BFA17EB00094E4173
:10C50000201EA4F10104DFDC484631462A4643469A
:10C51000BDE8F09FA0F14101192900D820307047F3
:10C520000FB4002300B589B00CA900910B996FF0EE
:10C530000042CB601E4B06931E4B07930423CDE9AC
:10C5400001321D4A089202466B46002000F030FB83
:10C5500009B05DF814FB70B586B006464FF0FF30A9
:10C560000091CDE90101002015460C4604903246A9
:10C57000694604A8FFF7D4FF03460498211825B1A3
:10C5800008B10A4600E022462A6000280DD0002BA0
:10C5900002DD0098884208D0081B0094CDE9010410
:10C5A0003246694604A8FFF7BBFF06B070BD000025
:10C5B000E9CD000807CE00089DCA00082DE9F04724
:10C5C00091460F4680460446002614F8015B2DB1C3
:10C5D00000F060FA0068405DC007F6D12B2D02D054
:10C5E0002D2D18D0641E4A463946204600F01CFC0A
:10C5F00027B13968A14201D1C7F8008071054FF019
:10C6000002040BD54042002803DD12F063F80460F9
:10C61000A007BDE8F08746F48066E4E70028F8DA72
:10C6200012F058F804606FF00040F2E70029A8BF4C
:10C630007047401C490008BF20F00100704710B44B
:10C64000B0FA80FC00FA0CF050EA010404BF10BC00
:10C65000704749B1CCF1200421FA04F411FA0CF12D
:10C6600018BF012121430843A3EB0C01CB1D4FEA66
:10C6700000614FEA102042BF002010BC704700EB61
:10C68000C35010440029A4BF10BC7047401C49008F
:10C6900008BF20F0010010BC70472DE9FE4F804616
:10C6A00081EA0300C00F0C46009021F0004123F006
:10C6B0000045B8EB0200A94105D24046214690460C
:10C6C0001C460B46024623F00040104347D0270D7E
:10C6D000C7F30A00C3F30A510290401A01904028A0
:10C6E0006BDAC3F3130040F4801B0098924620B12C
:10C6F0000023D2EB030A63EB0B0B01985946C0F100
:10C700004002504600F094F906460D465046594600
:10C71000019A00F0ACF910EB08006141002487EAAF
:10C72000115284EAE7731A4340D0009A62B3019A27
:10C73000012A4FEA075215DC001B61EB02014FF0A2
:10C74000004202EA0752CDE90042001C41F5801187
:10C7500032462B4600F0C6FB03B0BDE8F08F4046E2
:10C760002146F9E7001B61EB0201001C41F5801333
:10C7700000185B412018A2F5001747EB030140EABF
:10C78000D570B6196D4111E06D084FEA360645EADD
:10C79000C0754FEA0752001B61EB0201001C41F516
:10C7A000801149084FEA30000019514132462B46AA
:10C7B00003B0BDE8F04F00F086BB009801224000B6
:10C7C0000023D0EB020263EBE073009821464FEAAE
:10C7D000E074B8EB000061EB0401E9E783F000438B
:10C7E0005BE781F0004158E72DE9FE4F81EA030441
:10C7F00004F0004421F0004100944FF0000B23F0BE
:10C80000004350EA01045ED052EA03045BD0C3F354
:10C810000A54C1F30A552C44A4F2F3340194A0FB4A
:10C820000254C1F3130141F48011C3F3130343F421
:10C83000801301FB024400FB034E840A970A44EA7A
:10C84000815447EA8357A4FB076802958D0A05FBCC
:10C8500007854FEA932C04FB0C542705029D4FEAF1
:10C86000065847EA1637B5EB08056EEB070C870E3E
:10C87000920E47EA811742EA8312A7FB0201B6EB48
:10C880000B0164EB00042B0D43EA0C335E1844EB00
:10C890001C50DA465146E7FB0201C5F313044FEA88
:10C8A0000B3343EA14534FEA0432019C43EA060374
:10C8B000A4F10C040294009CCDE900B400F012FB3A
:10C8C00003B0BDE8F08F00200146F9E72DE9F04DF7
:10C8D00081EA030404F0004B21F0004514464FF0B8
:10C8E000000A23F0004150EA050220D054EA010278
:10C8F0001DD0C5F30A570246C5F31303C1F3130055
:10C90000C1F30A5640F4801543F48013A7EB0608E0
:10C91000101BD64608F2FD3873EB050002D308F170
:10C92000010801E092185B41B8F1000F03DA002022
:10C930000146BDE8F08D00204FF480110646844684
:10C940000EE0171B73EB050705D3121B63EB050302
:10C9500006434CEA010C49084FEA300092185B414B
:10C9600050EA0107EDD152EA030012D082EA040036
:10C9700083EA0501084305D0101BAB4106D2012212
:10C98000002306E000224FF0004302E06FF00102B6
:10C9900053101AEB06004CEB085110EB0A0041EB68
:10C9A0000B01BDE8F04D00F08EBAC1F30A52C1F39D
:10C9B000130140F2FF3341F480119A4202DA002061
:10C9C0000146704740F233439A42A2F2334202DCFE
:10C9D000524200F03CB800F02BB8000030B5041E05
:10C9E00071F1000404DB4FF00044404264EB0101AC
:10C9F000141E73F1000405DB1C464FF00043524245
:10CA000063EB0403994208BF904230BD064C074DCA
:10CA100006E0E06840F0010394E80700984710340E
:10CA2000AC42F6D3FFF7B4FBF451080814520808DF
:10CA3000202A04DB203A00FA02F1002070479140DE
:10CA4000C2F1200320FA03F3194390407047202AD3
:10CA500004DB203A21FA02F00021704721FA02F3A8
:10CA6000D040C2F120029140084319467047202A65
:10CA700006DBCB17203A41FA02F043EAE07306E006
:10CA800041FA02F3D040C2F1200291400843194616
:10CA90007047000000487047BCD3070810B5044633
:10CAA000FFF7F8FF0068005D00F0010010BD000016
:10CAB0002DE9FF4F087881B09946FF2805D0491C21
:10CAC0002D2804D00024002308E000230BE00124DB
:10CAD000F9E703EB830300EB4303491C0878FF28C5
:10CAE000F7D104B15B4200200090147801462D2C50
:10CAF00001D02B2C04D1521C2D2C12D000240094D8
:10CB000000251678FF2E0ED00A24A0FB04C801FBD6
:10CB10000481002700FB0711521C16EB0C00694131
:10CB2000EFE70124EBE7994450EA01020ED000241C
:10CB3000AA4D2646DFF8A88200F030FA82468B46DE
:10CB4000B9F1000009DAC9F100071BE001980021E2
:10CB5000C0E9001105B0BDE8F08F074612E0F80704
:10CB600007D022462B4630464146FFF73DFE06469B
:10CB7000884622462B4610461946FFF735FE0446E6
:10CB80000D467F10002FEAD1B9F1000F324643461F
:10CB90005046594602DAFFF799FE01E0FFF724FEFE
:10CBA000009A0AB181F00041019AC2E90001D1E77F
:10CBB0002DE9FF4F1F468DB0D7E901464FF0FF38F2
:10CBC0002E2045464FF000090B90B9696D1C0E9858
:10CBD0008847396A824688470028F6D1BAF1FF3F74
:10CBE0000AD024F4D064002E11DDBAF12B0F08D046
:10CBF000BAF12D0F0BD102E0404611B0ABE744F47F
:10CC00008064B9696D1C0E9888478246761E694615
:10CC1000600501D52D2000E02B208DF8000001F1EA
:10CC2000010B0DF1200809E0B9696D1C0E988847C9
:10CC300082460F9844F40074761E0560002E02DDD3
:10CC4000BAF1300FF0D00B998A453ED144F0800400
:10CC500006E00F99681CA9F1010944F4007408600A
:10CC6000B9696D1C761E0E98884782463028F0D030
:10CC70002BE00B998A4505D1200603D444F08004AB
:10CC8000761E18E0504611F015FE08B30DF11301A1
:10CC9000761E44F400748B4508D2AAF130000BF8DC
:10CCA000010B200607D5A9F1010003E0200602D4FC
:10CCB00009F101008146A00502D50F99681C0860A2
:10CCC000B9696D1C0E9888478246002ED1DC53E06E
:10CCD000002E51DDBAF1650F02D0BAF1450F4BD1EC
:10CCE000A00549D5B9696D1C24F44074761E0E98D0
:10CCF00088478246002E0CDD2B2804D0BAF12D0F78
:10CD000007D144F48074B9696D1C0E988847824637
:10CD1000761EE00501D52D2100E02B2108F8011B2E
:10CD2000CDF82C8021E00DF12901761E44F4007429
:10CD300088450CD2AAF1300010F0FF0088F80000FE
:10CD400002D10B99884509D908F1010806E0E005F0
:10CD500001D5244801E042F20F708146B9696D1C8B
:10CD60000E98884782460F980560002E04DD5046D5
:10CD700011F0A0FD0028D6D1F9690E988847FF2050
:10CD80008BF8000088F800000020069007904B46C2
:10CD90006A4608A906A8FFF78BFEA00502D46FF02B
:10CDA00001002AE714F0240F0AD0E00714D1DDE9CE
:10CDB00006123868031D3B600068C0E900120BE0F2
:10CDC000DDE90601FFF743FB0146E00704D13868BF
:10CDD000021D3A600068016028460EE7000024400A
:10CDE0000000F03FF1D8FFFF426842B1016811F83E
:10CDF000013B23B1521EC0E90012184670470121C1
:10CE0000C160881E704742685AB1C368016843B95F
:10CE100083688B4205D0491E521CC0E900120020D5
:10CE200070474FF0FF3070472DE9F05F8246007881
:10CE3000002715468B460AF10104B946302801D077
:10CE40009DB113E014F8010B0127782803D058286E
:10CE500001D045B10AE00DB1102D07D100271025F2
:10CE600014F8010B02E0082500E00A250026B04670
:10CE70000EE005FB080005FB06F1012701EB10465B
:10CE80001FFA80F8B6F5803F00D3B94614F8010BBD
:10CE9000294600F075F80028EBDABBF1000F05D049
:10CEA0000FB1641E00E05446CBF80040B9F1000F0A
:10CEB00006D011F00FFC02210160C81EBDE8F09FF2
:10CEC00048EA0640FAE710B5141E73F1000408DAC8
:10CED000401C41F1000192185B411A4301D120F03E
:10CEE000010010BD2DE9F04D92469B4611B1B1FAFB
:10CEF00081F202E0B0FA80F220329046FFF798FD0E
:10CF000004460F4640EA0A0041EA0B0153465A46DE
:10CF1000084313D0114653EA010019D0C8F140026A
:10CF20005046FFF794FD05460E4650465946424688
:10CF3000FFF77EFD084305D0012004E02046394676
:10CF4000BDE8F08D0020054346EAE0762C433743E8
:10CF50000A986305E40AA0EB08000022FD0A44EAEF
:10CF600047540A3002D500200146E9E701051019AF
:10CF70006941DDE9084500196941BDE8F04DA2E7C6
:10CF80003A2800D2303820F02002412A01D3A2F101
:10CF90003700884201D34FF0FF3070470EB540F2A2
:10CFA000334202920022CDE900221346FFF79AFF96
:10CFB00003B000BD70B58C1810F8015B15F00703C5
:10CFC00001D110F8013B2A1106D110F8012B03E022
:10CFD00010F8016B01F8016B5B1EF9D12B0705D42A
:10CFE0000023521E0DD401F8013BFAE710F8013B73
:10CFF000CB1A921C03E013F8015B01F8015B521E8F
:10D00000F9D5A142D8D3002070BD000038B5044640
:10D0100018480068FFF78AF90546002001232A46D0
:10D0200000901448016820461AF0A2F912480068DE
:10D03000FFF77CF90546002001232A4600900E48A0
:10D04000016820461AF094F90C480078032810D1A2
:10D050000B480068FFF76AF90546002001232A46BD
:10D0600000900748016820461AF082F90020034921
:10D07000087038BD9C010020F0010020280100202C
:10D080009801002010B504462146024806F09FF89A
:10D0900010BD00003407012010B5044806F0AAF8BE
:10D0A000042801D0012010BD0020FCE73407012036
:10D0B00010B5002400F014F8012801D0012010BDA3
:10D0C000064806F0ABF9044634B94FF40061034852
:10D0D00005F030FF00B101242046F0E734070120BD
:10D0E00008B5012000909DF8000008BD2DE9F84327
:10D0F00004460D4616461F464FF0000833462A46A2
:10D1000021460548009706F02DFA08B14FF00108B6
:10D110004046BDE8F8830000340701202DE9F843BC
:10D1200004460D4616461F464FF0000833462A4671
:10D1300021460548009706F03DFB08B14FF0010875
:10D140004046BDE8F88300003407012000BFFEE739
:10D15000F0B501464FF6FF700C46002211E00E4D6F
:10D16000AD5C6840002309E000F0010525B14AF2FA
:10D17000010585EA500000E040085B1C082BF3D352
:10D18000521C8A42EBD32546641C034E7055C0F3F3
:10D1900007253555F0BD0000A3B70120F0B50246C4
:10D1A0004FF6FF70002312E0D55C684000240AE0CF
:10D1B00000F0010525B14AF2010585EA600000E0B2
:10D1C0004010651CECB2082CF2DB5D1CABB28B424C
:10D1D000EAD30D46491C505505125554F0BD0000C8
:10D1E00010B5002405A000F00FFC00F057FC044629
:10D1F00014B100F0D5FE0446204610BD626F6F7476
:10D200002E62696E00000000FEB5044600256078BD
:10D2100028B9E5A104F25C5011F036FA0FE060780D
:10D2200001280CD1A089E17AA27ACDE900210290EF
:10D23000637A227AE6A104F25C5011F025FA207894
:10D24000C4F8540504F21950C4F81005608A6082CD
:10D25000322104F21950FFF72AF8C82104F2247091
:10D26000FFF725F8002084F8EC0784F8ED07C821C3
:10D2700004F67E10FFF71BF8002084F8460A84F8B5
:10D28000470A0025A07B03282CD104F17A00FFF780
:10D290004DF838B304F2945104F17A000BF026FAF9
:10D2A00084F8ED07002019E004F2945232F82010BF
:10D2B0000BE094F8EC6704F2247222F8161094F84C
:10D2C000EC27521C84F8EC27491C04F2945202EB20
:10D2D00080025288521C8A42EBDC401C94F8ED1705
:10D2E0008142E1DC00217AE0002073E004F2247244
:10D2F00032F8113004F2624232F82020934268DBA7
:10D3000004F2247232F8113004F2624202EB80021D
:10D31000528893425DDC04F2624202EB800256883E
:10D3200004F2624232F82020B21A531C012B29DD8C
:10D3300004F2624636F820201CE004F2247636F827
:10D340001160964215D104F2624606EB800676889B
:10D3500096420ED104F2624606EB80067688761C71
:10D36000B7B204F2624606EB80067780A679761C97
:10D37000A671521C04F2624606EB8006768896423D
:10D38000DBDA25E0012B23D104F2247232F811609C
:10D3900004F2624202EB80025288964218D104F2F3
:10D3A000247232F8116004F2624232F82020964270
:10D3B0000ED104F2624202EB80025288521C96B2F5
:10D3C00004F2624202EB80025680A279521CA271E2
:10D3D00003E0401C2279824288DC00BF491C94F89B
:10D3E000EC07884280DCE07B04282CD104F5D37064
:10D3F000FEF79CFF38B304F2EE7104F5D3700BF026
:10D4000075F984F8470A002019E004F2EE7232F848
:10D4100020100BE094F8466A04F67E1222F81610EB
:10D4200094F8462A521C84F8462A491C04F2EE72EB
:10D4300002EB80025288521C8A42EBDC401C94F8BA
:10D44000471A8142E1DC00217AE0002073E004F613
:10D450007E1232F8113004F2B24232F820209342A8
:10D4600068DB04F67E1232F8113004F2B24202EBAD
:10D470008002528893425DDC04F2B24202EB8002E9
:10D48000568804F2B24232F82020B21A531C012B03
:10D4900029DD04F2B24636F820201CE004F67E16A0
:10D4A00036F81160964215D104F2B24606EB8006BA
:10D4B000768896420ED104F2B24606EB8006768854
:10D4C000761CB7B204F2B24606EB80067780E679A6
:10D4D000761CE671521C04F2B24606EB8006768892
:10D4E0009642DBDA25E0012B23D104F67E1232F8D6
:10D4F000116004F2B24202EB80025288964218D1C7
:10D5000004F67E1232F8116004F2B24232F82020A2
:10D5100096420ED104F2B24202EB80025288521CB3
:10D5200096B204F2B24202EB80025680E279521CBB
:10D53000E27103E0401C6279824288DC00BF491C32
:10D5400094F8460A884280DCA079E1790844C4F85E
:10D550005805608AC4F8900501202074002084F8E2
:10D560001805207C012808D10020C4F814054FF4C8
:10D570000B701BF077FAC4F814051F48007888B9BF
:10D580000020022123464A02CDE900101BA11C48BD
:10D5900020F0B6FA012805D132201AF03CF801201B
:10D5A00015490870FEBD0000416461707465723BEE
:10D5B00022313B3B434F4D313B3131353230303BF3
:10D5C000303B313B383B35303B35303B353022004A
:10D5D000416461707465723B22303B3B25642E25AB
:10D5E000642E25642E25643B25643B343530303B66
:10D5F0003435303022000000C70300204C4F470074
:10D600009DDB01082DE9FC4105460027DB48007839
:10D6100000287DDD002484E1D94850F824004078BA
:10D620006978884275D1D64850F824000078297866
:10D630008842F7D1D24850F82400007AA97888426D
:10D64000F0D1CF4850F82400417AE8788142E9D1FE
:10D65000CB4850F82400817A28798142E2D1C84829
:10D6600050F82400C17A68798142DBD10026287AFB
:10D6700003287DD1C24951F824108873C04850F85E
:10D68000240000F26240BE4A52F82420127900EBD6
:10D69000820105F10E000BF029F80646B84850F853
:10D6A000240000793044B64951F824100871002054
:10D6B000B34951F82410887100BF1AE0B04951F8FD
:10D6C000241001F2624101EB80018A78AC4951F8E3
:10D6D000241001F2624111F82010511AA84A52F8A0
:10D6E000242092791144491CA54A52F824209171B2
:10D6F000401CA34951F8241009798142DEDCA0497D
:10D7000051F8241001F11400FEF710FE50B101E0B1
:10D710000DE105E19A4951F8241001F1140099A195
:10D72000FEF7D0FD964951F8241001F1140005F1DF
:10D730000E01FEF7C7FD924951F8241001F17A005D
:10D74000FEF7F4FD38B18E4951F8241001F17A004A
:10D750008CA1FEF7B7FD8A4951F8241001F17A0037
:10D7600005F14101FEF7AEFD854850F8240000E0C8
:10D7700028E0007C58B9A87A012808D1804951F8DE
:10D78000241008747E4951F82400FFF73DFD7C48C1
:10D7900050F82400007C012813D142F210717A481D
:10D7A00000681AF0A3F80320754951F82410087492
:10D7B000734951F82400FFF727FD734800681AF0F9
:10D7C0006DF8A4E0687A0428FBD16D4951F8241063
:10D7D000C8736B4850F8240000F2B240684A52F80F
:10D7E0002420527900EB820105F10E000AF07EFF41
:10D7F0000646634850F8240040793044604951F8A7
:10D800002410487100205E4951F82410C87100BFEF
:10D810001AE05B4951F8241001F2B24101EB80019A
:10D820008A78574951F8241001F2B24111F82010BA
:10D83000511A534A52F82420D2791144491C504AB3
:10D8400052F82420D171401C4D4951F824104979D7
:10D850008142DEDC4A4951F8241001F14700FEF70D
:10D8600065FD38B1464951F8241001F1470045A142
:10D87000FEF728FD424951F8241001F1470005F157
:10D880000E01FEF71FFD3E4951F8241001F5D3703B
:10D89000FEF74CFD38B13A4951F8241001F5D37028
:10D8A00038A1FEF70FFD364951F8241001F5D37069
:10D8B00005F14101FEF706FD314850F82400007CD7
:10D8C00058B9A87A012808D12D4951F824100874B4
:10D8D0002B4951F82400FFF797FC294850F8240001
:10D8E000007C012813D142F210712748006819F01A
:10D8F000FDFF0320224951F824100874204951F8F3
:10D900002400FFF781FC2048006819F0C7FF1F487A
:10D91000006818B11E48006819F0C0FF012705E033
:10D92000641C164800788442FFF676AE00BF97B9B3
:10D93000687818B9284609F0EFFC0CE068780128EF
:10D9400009D1002000902B464FF4407211A10190A4
:10D95000134820F0D5F81348007868B90120114920
:10D960000870002001212B464FF44072CDE90010D1
:10D970000DA10F4820F0C4F8BDE8FC81B0030020E1
:10D9800018BC01202C000000D00000201001002055
:10D99000E80000204D6275734D54435000000000B4
:10D9A000516D0108B4030020506C616E6572000077
:10D9B000FD6A01081CB504460020009023464FF480
:10D9C000C07204F14B010190014820F099F81CBD90
:10D9D00049EB00087047000070B507A42046FEF729
:10D9E000A5FC0546294620460DF09CFC4FF4FA7034
:10D9F00019F011FE70BD000061742B636D67643D0A
:10DA000033302C3300000000F0B585B004461421FB
:10DA10006846FEF74CFC64260025224614A16846A1
:10DA200010F032FE6846FEF781FC0746394668462C
:10DA30000DF078FC4FF47A7019F0EDFD17E032200C
:10DA400019F0E9FD681CC5B210A11148FEF746FCAB
:10DA500010B1012005B0F0BD0EA10D48FEF73EFC4F
:10DA600008B10020F6E7B54201DD0220F2E7E6E763
:10DA700041545E534653413D2272656D6F76652277
:10DA80002C2022613A2F2573220000004F4B00000A
:10DA90001C9C01204552524F520000002DE9F04FCE
:10DAA000ADF6741D80A683A70FF2142B87A0CDF8C6
:10DAB000700989A0CDF86C090FF228288BA0CDF849
:10DAC00068098DA0CDF864094FF00009DFF834A291
:10DAD00000258DA101A8FEF74BFC91A11AA8FEF725
:10DAE00047FC95A133A8FEF743FC99A14CA8FEF78B
:10DAF0003FFC9DA165A8FEF73BFCA1A17EA8FEF717
:10DB000037FCA5A197A8FEF733FCA9A1B0A8FEF7A2
:10DB10002FFCAEA1C9A8FEF72BFCB3A1E2A8FEF72B
:10DB200027FCB7A1FBA8FEF723FCC2A10DF58A6074
:10DB3000FEF71EFCC5A10DF2B440FEF719FCCAA108
:10DB40000DF5A360FEF714FCCEA10DF27C50FEF79C
:10DB50000FFCD4A10DF5BC60FEF70AFCD9A10DF2B3
:10DB60004460FEF705FCDFA10DF5D560FEF700FC73
:10DB7000E2A10DF20C70FEF7FBFBE7A10DF5EE60E4
:10DB8000FEF7F6FBEBA10DF2D470FEF7F1FBECA172
:10DB90000DF51060FEF7ECFB3046FEF7C7FB0446C0
:10DBA000214630460DF0BEFB4FF4FA7019F033FDFC
:10DBB0003846FEF7BBFB0446214638460DF0B2FB63
:10DBC0004FF4FA7019F027FD4046FEF7AFFB04460C
:10DBD000214640460DF0A6FB072417E0C82019F0A7
:10DBE0001AFD04EBC40101EB041101AA02EB810050
:10DBF000FEF79CFB04EBC40101EB041101AA0090A9
:10DC000002EB810000990DF08DFB641C142CE5DB08
:10DC10004FF47A7019F0FFFC0DF2D470FEF786FB1A
:10DC2000044621460DF2D4700DF07CFB23E04FF446
:10DC3000FA7019F0F0FC6D1CC4A1CC48FEF74EFB45
:10DC400020B9CBA1C948FEF749FB38B1D0A1C748DC
:10DC5000FEF744FB10B14FF001090DE0CEA1C3481F
:10DC6000FEF73CFB10B14FF0000905E0554502D925
:10DC70004FF0020900E0DAE700BF4FF47A7019F0C4
:10DC8000CAFC0DF51060FEF751FB044621460DF568
:10DC900010600DF047FB4FF47A7019F0BCFC484659
:10DCA0000DF6741DBDE8F08F61742B636D67663DE2
:10DCB0003100000061742B636D65653D310000002B
:10DCC00061742B6366756E3D3100000061745E7394
:10DCD000787261743D32000061745E736973743DE3
:10DCE00035000000415445300000000061742B6392
:10DCF0007265673D3200000061742B637265673F97
:10DD000000000000C0D4010061745E736963733D5C
:10DD1000352C636F6E547970652C47505253300028
:10DD200061745E736963733D352C61706E2C696E2E
:10DD30007465726E6574000061745E736963733D2F
:10DD4000352C646E73312C382E382E382E38000066
:10DD500061745E736963733D352C757365722C67EE
:10DD6000646174610000000061745E736963733DF7
:10DD7000352C7061737377642C6764617461000083
:10DD800061745E736963733D352C616C70686162A8
:10DD900065742C300000000061745E736963733D2C
:10DDA000352C696E616374544F2C323000000000D2
:10DDB00061745E736973733D352C22737276547986
:10DDC0007065222C224674702200000061745E731C
:10DDD0006973733D352C22616C70686162657422D1
:10DDE0002C2231220000000061745E736973733D60
:10DDF000352C22636F6E4964222C223522000000EC
:10DE000061745E736973733D352C2261646472655D
:10DE10007373222C226674703A2F2F39322E3533C9
:10DE20002E39362E3230332F6E69722F52656722AB
:10DE30000000000061745E736973733D352C2274B9
:10DE400063704D52222C22332200000061745E73F5
:10DE50006973733D352C227463704F54222C223326
:10DE6000303030220000000061745E736973733DCE
:10DE7000352C2275736572222C226E707074696B5A
:10DE80002200000061745E736973733D352C22704B
:10DE90006173737764222C22367A484A75516B3746
:10DEA0002200000061745E736973733D352C22702B
:10DEB000617468222C2266696C653A2F2F2F613AB3
:10DEC0002F22000061745E736973733D352C2266E6
:10DED000696C6573222C22626F6F742E62696E22E8
:10DEE0000000000061745E736973733D352C22631A
:10DEF0006D64222C226667657422000061745E7373
:10DF00006973733D352C2266744D6F6465222C2233
:10DF100062696E220000000061745E736973733D74
:10DF2000352C2268634D6574686F64222C22302280
:10DF30000000000061745E7369736F3D350000007E
:10DF400061745E736973633D350000005349533A51
:10DF500020352C302C323130302C22464745543A73
:10DF600020626F6F742E62696E2200001C9C01207B
:10DF70005349533A20352C302C323130302C226624
:10DF800067657420626F6F742E62696E22000000F4
:10DF9000476F6F64627965004552524F520000002E
:10DFA0002DE9F047ADF5866D00254FF40071684608
:10DFB000FEF77DF933A014F077F90546002D5FD008
:10DFC00030A014F0BFF90446002C57D06E0A4FF46D
:10DFD000007000FB165A44F620612D48006819F0C5
:10DFE00085FC1EF07BFF0A2226A181A813F0B8FB56
:10DFF00080461EF085FF2648006819F04FFCB8F1F6
:10E00000000F37D1002723E0B74201D1D14601E00C
:10E010004FF400794946684614F0DEF944F6206171
:10E020001B48006819F062FC1EF058FF80AB4A469E
:10E03000694681A813F02BFF804681A813F05AFE91
:10E0400080461EF05DFF1248006819F027FC7F1C17
:10E05000701C8742D8D31EF041FF81A812F098FFB0
:10E0600080461EF04DFF14F0E5F801200DF5866D99
:10E07000BDE8F08714F0DEF80020F7E70020F5E7B0
:10E080000020F3E7626F6F742E62696E000000007B
:10E09000D0000020F0B52DED048BADF2546D044698
:10E0A000002002900390049040F2DC511EA8FEF77D
:10E0B000FEF853480068FEF739F9064600200123B0
:10E0C000324600904E480168204619F051F94D48FB
:10E0D0000068FEF72BF90646002001233246009027
:10E0E00048480168204619F043F91E214648FEF7CA
:10E0F000DEF81D2245494448FEF7C0F8002006E03E
:10E100004149095C11B95F213F4A1154401C1D2847
:10E11000F6DB9FED3F8A18EE100AFEF785F941EC19
:10E12000190B53EC192B3BA102A810F0ADFA02A970
:10E130001EA8FEF7C7F839A11EA8FEF7C3F844A130
:10E140001EA8FEF7BFF81EA8FEF7F0F81EA9461895
:10E15000304619F021FC05464BA11EA8FEF7B2F887
:10E1600057491EA8FEF7AEF81FF0F0F907464FF426
:10E1700080333A4653A105A810F086FA05A91EA8D7
:10E18000FEF7A0F85DA105A810F07EFA05A91EA86B
:10E19000FEF798F82EA11EA8FEF794F81EA8FEF729
:10E1A000C5F806460020012332461EA900902046ED
:10E1B00019F0DEF840F2DC511EA8FEF778F81EA830
:10E1C0001EF0C0FF5AA11EA8FEF77CF80E491EA83B
:10E1D000FEF778F85BA11EA8FEF774F81EA8FEF7FC
:10E1E000A5F806460020012332461EA900902046CD
:10E1F00019F0BEF80DF2546DBDEC048BF0BD0000BB
:10E200009C010020A8010020A64F01201C9C012099
:10E21000D7A3903F20252E32660000003C70726527
:10E220003E3C62723E4E616D652020202020202001
:10E23000202020537461746520205072696F7269C8
:10E2400074792020537461636B2020204E756D001B
:10E250003C62723E2D2D2D2D2D2D2D2D2D2D2D2D54
:10E260002D2D2D2D2D2D2D2D2D2D2D2D2D2D2D2DDE
:10E270002D2D2D2D2D2D2D2D2D2D2D2D2D2D2D2DCE
:10E280002D3C62723E0000003C62723E3C62723E77
:10E290002D2D2D2D2D2D2D2D2D2D2D2D2D2D2D2DAE
:10E2A0002D2D2D2D2D2D2D2D2D2D2D2D2D2D2D2D9E
:10E2B0002D2D2D2D2D2D2D2D2D2D2D2D2D00000015
:10E2C0009831080846726565204865617020536979
:10E2D0007A65286279746529202F2048656170204D
:10E2E00053697A652862797465293A202564202F5C
:10E2F0002025643C62723E3C62723E003C70726556
:10E300003E3C62723E4E616D652020202020202020
:10E3100020202020204162732054696D6520202038
:10E32000202020202025252054696D650000000054
:10E330003C62723E3C62723E3367204C4F473A3C2F
:10E3400062723E003C2F6469763E3C2F626F6479B6
:10E350003E3C2F68746D6C3E00000000016801F5C2
:10E360008051896921F00202016801F580518A61BA
:10E370007047016801F58051896941F00202016826
:10E3800001F580518A617047016801F58051896902
:10E3900021F40052016801F580518A6170470168DB
:10E3A00001F58051896941F40052016801F58051FD
:10E3B0008A61704708B508490968C9084FF47A723C
:10E3C000B1FBF2F14143009100BF00BF00994A1E2A
:10E3D00000920029F9D108BD2402002038B5044676
:10E3E00000200090206800F58050806940F4801182
:10E3F000206800F580508161206800F580508069B8
:10E4000000900120FFF7D6FF0099206800F58050AA
:10E41000816138BD10B5024802F050FF10BD000008
:10E420000042012030B503461479557944EA0520AD
:10E43000084C0C442064D4782406957844EA0544BA
:10E44000557844EA0524157844EA0500014C0C444B
:10E45000606430BD0080024070B5AEB004460E4628
:10E46000002526B14FF40061E160C900A1600020E1
:10E47000119012901390149015901690E06918B9AD
:10E480004FF48060179001E0002017904FF4007067
:10E490001890002019901A901B901C901D904020FD
:10E4A0001E9000201F902090219022902390249075
:10E4B00025902690802027900020289029902A904F
:10E4C0002B902C902D902068056871480540DDE95F
:10E4D000110108431399084314990843A16808439C
:10E4E0001599084316990843E168084317990843AA
:10E4F00018990843199908431A9908431B99084326
:10E5000005432068056020680568012002F040FD91
:10E5100020680560DDE91C0108431E9908431F9926
:10E5200008432099084321990843229908432399D5
:10E5300008432168486020684568012002F028FDF2
:10E540002068456024982168886025982168C86003
:10E55000206885694FF641700540DDE9261040EAE4
:10E56000014028990843299908432A9908432B997F
:10E57000084305432068856120688569012002F011
:10E5800007FD20688561DDE92C0108432168C86129
:10E590002068C569012002F0FBFC2068C5610020ED
:10E5A00001904FF000700290002003904FF4001093
:10E5B0000490002005900690079008900420099090
:10E5C000C0050A9040120B9080010C9040120D90F3
:10E5D00080200E9000200F901090206800F5805051
:10E5E00085692C480540DDE901010843039908438A
:10E5F0000499084305990843069908430799084375
:10E6000008990843099908430543206800F580509C
:10E610008561206800F580508569012002F0B8FC12
:10E62000206800F580508561DDE90A0108430C99F6
:10E6300008430D9908430E9908430F9940EA810059
:10E640001099084340F40001206800F580500160F3
:10E65000206800F580500568012002F099FC2068D0
:10E6600000F580500560A069012809D1206800F5F7
:10E670008050C06908490843216801F58051C8618C
:10E68000002120466269FFF7CDFE2EB070BD00006C
:10E690000F8120FF233FDEF84000010038B504461B
:10E6A000002000902068006820F0040021680860C5
:10E6B0002068006800900120FFF77CFE0098216828
:10E6C000086038BD38B50446002000902068006816
:10E6D00040F0040021680860206800680090012074
:10E6E000FFF768FE00982168086038BD38B5044619
:10E6F000002000902068006820F008002168086071
:10E700002068006800900120FFF754FE00982168FF
:10E71000086038BD38B504460020009020680068C5
:10E7200040F008002168086020680068009001201F
:10E73000FFF740FE00982168086038BD2DE9F043DE
:10E74000ADF2044D05464FF4FA7104A8FDF7AFFD94
:10E750004FF4007181A8FDF7AAFD64A665A766487D
:10E760000068FDF7E3FD04460020012322460090E7
:10E7700061480168284618F0FBFD60480068FDF715
:10E78000D5FD044600200123224600905B48016825
:10E79000284618F0EDFD5A48007880B959A104A820
:10E7A0000FF072FF04A8FDF7C1FD0446002001230D
:10E7B000224604A90090284618F0DAFD82E05C4960
:10E7C00004A80FF061FF04A8FDF7B0FD0446002087
:10E7D0000123224604A90090284618F0C9FD4848A4
:10E7E0000278544904A80FF04FFF04A8FDF79EFDDE
:10E7F000044600200123224604A90090284618F070
:10E80000B7FD3F4802784C4904A80FF03DFF04A82B
:10E81000FDF78CFD044600200123224604A9009048
:10E82000284618F0A5FD002448E0444850F824008C
:10E83000807A10B1012804D101E0B04601E0B84669
:10E8400000BF00BF3D4850F82400806E3B4951F89E
:10E85000241091F86410394A52F824204B32374B77
:10E8600053F824301B78CDE90032CDE9021043463D
:10E87000621C334904A80FF007FF04A8FDF756FDFA
:10E880008146002001234A4604A90090284618F03A
:10E890006FFD2A4850F824002A49026F04A80FF09F
:10E8A000F3FE04A8FDF742FD8146002001234A46FD
:10E8B00004A90090284618F05BFD641C10480078FD
:10E8C0008442B2DB20A181A8FDF7FCFC81A8FDF702
:10E8D0002DFD044600200123224681A900902846F0
:10E8E00018F046FD0DF2044DBDE8F0835253343864
:10E8F00035000000455448009C010020BC01002068
:10E90000E1050020D09DD0B5D18220D181D0BED0EC
:10E91000B7D0B4D0B0D0BDD18BD18520D181D0BEFD
:10E92000D0B1D18BD182D0B8D0B93C62723E000058
:10E9300028220808602D080894230808E8C8012048
:10E94000DC200808982C08083C2F6469763E3C2F90
:10E95000626F64793E3C2F68746D6C3E000000006D
:10E9600070B5ADF57C7D05464FF4FA7102A8FDF750
:10E970009EFC4FF4FA717FA8FDF799FC4E480068A1
:10E98000FDF7D4FC064600200123324600904A4899
:10E990000168284618F0ECFC48480068FDF7C6FC02
:10E9A000064600200123324600904448016828466C
:10E9B00018F0DEFC012242A1454812F0D1FE454983
:10E9C00008700846007880B143A102A80FF05CFEF1
:10E9D00002A8FDF7ABFC064600200123324602A93F
:10E9E0000090284618F0C4FC52E03A48007800280D
:10E9F0004ED13748C06880B93FA102A80FF044FE4D
:10EA000002A8FDF793FC064600200123324602A926
:10EA10000090284618F0ACFC37E03D4902A80FF002
:10EA200033FE02A8FDF782FC064600200123324691
:10EA300002A90090284618F09BFC00BF01AB4FF4E0
:10EA4000C87202A9224812F0E7FF224908700CE0C0
:10EA500030A102A8FDF742FC04462CB104222FA1EC
:10EA60002046FDF74DFC00E000E0F1E700BF00208C
:10EA70000123009002A92846019A18F079FC019818
:10EA8000B0F5C87FDAD200BF00BF114812F080FA9B
:10EA900024A17FA8FDF716FC7FA8FDF747FC0646DA
:10EAA0000020012332467FA90090284618F060FC20
:10EAB0000DF57C7D70BD00009C010020CC01002084
:10EAC0004C6F674556454E542E6373760000000028
:10EAD0000C4C012015020020D096D183D180D0BDEE
:10EAE000D0B0D0BB20D0BDD0B520D181D0BED0B762
:10EAF000D0B4D0B0D0BD0000D096D183D180D0BDED
:10EB0000D0B0D0BB20D0BFD183D181D18200000052
:10EB10004830080820200D0A000000003C62723EC8
:10EB2000000000003C2F6469763E3C2F626F6479E0
:10EB30003E3C2F68746D6C3E0000000010B54FF431
:10EB4000007003F049F810BD2DED088BADF5547D34
:10EB500007460020B090AF90AE90AD900026AA90EE
:10EB60002421A1A8FDF7A3FB48218FA8FDF79FFB57
:10EB7000982169A8FDF79BFBB34600206890814669
:10EB8000FAA067907421B7A8FDF791FB00201EF052
:10EB9000E7FF6690052301225DA966981EF096FAAC
:10EBA0005F98BA905D98D39038788DF8DC027878C9
:10EBB0008DF8DD02B8788DF8DE02F8788DF8DF0286
:10EBC00038798DF8E00278798DF8E102B8798DF81E
:10EBD000E202388AADF8EC0297ED050A8DEDBC0A29
:10EBE000F8798DF8E302787A8DF8E502387A8DF8B5
:10EBF000E402B87A8DF8E6020020D190B86ED29087
:10EC000007F14B010DF22730FDF7B2FB07F11801B8
:10EC1000BDA8FDF7ADFBB7A8D649D74A127841F891
:10EC20002200D5480078401CD3490870D3480068BA
:10EC300018B1D348006818F031FE9DF8E40268B1BD
:10EC40009DF8DC22CFA1A1A80FF01EFD8FA9A1A8DD
:10EC500010F0F6FBBDA98FA8FDF734FB4FF0000BB9
:10EC6000D3E0CF4850F82B0000789DF8DC128842A2
:10EC70007CD100206890CA4850F82B409DF8DD02F6
:10EC8000032825D100201FE004F2624131F8205012
:10EC90000DE0BDF8EC12A94205D1B2464FF00109D2
:10ECA000012168910AE0711C8EB2691C8DB204F2D8
:10ECB000624101EB80014988A942EADA00BFB9F15B
:10ECC000010F00D103E0401C21798142DCDC29E006
:10ECD0009DF8DD02042825D100201FE004F2B24196
:10ECE00031F820500DE0BDF8EC12A94205D1B24632
:10ECF0004FF00109012168910AE0711C8EB2691C74
:10ED00008DB204F2B24101EB80014988A942EADAEE
:10ED100000BFB9F1010F00D103E0401C61798142CD
:10ED2000DCDC00BF00269DF8E202012866D14FF02E
:10ED300000099DF8DE0203282ED1002028E004F20D
:10ED4000624131F8205016E0DDEDBC0A00EE105AA9
:10ED5000B8EE400AF4EE400AF1EE10FA07D100EEE8
:10ED6000106AB8EE40AA4FF001090BE047E0711CB1
:10ED70008EB2691C8DB204F2624101EB80014988B8
:10ED8000A942E1DA00BFB9F1010F00D103E0401C54
:10ED900021798142D3DC31E09DF8DE0204282DD1B7
:10EDA000002027E004F2B24131F8205015E0DDEDFB
:10EDB000BC0A00EE105AB8EE400AF4EE400AF1EE3A
:10EDC00010FA06D100EE106AB8EE40AA4FF0010921
:10EDD0000AE0711C8EB2691C8DB204F2B24101EBE3
:10EDE00080014988A942E2DA00BFB9F1010F00D1E0
:10EDF00003E0401C61798142D4DC00BF09E00020BF
:10EE000068900BF1010000F0FF0BBBF1140FFFF64F
:10EE100028AF00BF689800287AD1B9F1000FFBD164
:10EE20006898B0BB4FF4B87101A8FDF740FA9DF89F
:10EE3000DC028DF80400FA20ADF8100000208DF8F7
:10EE40000E009DF8E6028DF805009DF8DF0248B13E
:10EE5000BDF8EC02431C024652A10DF112000FF066
:10EE600013FC06E0BDF8EC2250A10DF112000FF0EA
:10EE70000BFC9DF8DD02032802D18DF80C0005E0A3
:10EE80009DF8DD02042801D18DF80D0001A8FEF7E0
:10EE9000B9FB4BE14FF47A7018F0BDFB4FF0000B5B
:10EEA0003BE13F4850F82B0000789DF8DC12884287
:10EEB0005BD13B4850F82B40B9F1000F40D19DF891
:10EEC000E20201283CD14FF4B87101A8FDF7EFF937
:10EED0009DF8DC028DF80400FA20ADF81000002047
:10EEE0008DF80E009DF8E6028DF805009DEDBC0A38
:10EEF000BCEEC00A8DED000A9DF8E00248B1009B0F
:10EF00005B1C28A10DF11200009A0FF0BDFB06E07A
:10EF10000FE126A10DF11200009A0FF0B5FB9DF84C
:10EF2000DE02032802D18DF80C0005E09DF8DE0218
:10EF3000042801D18DF80D0001A8FEF763FB00BF86
:10EF40009DF8DD02032848D1002042E004F262412E
:10EF500031F8205030E0BDF8EC12A94228D1B24679
:10EF60004FF00109012168912DE0D0E020200D0A29
:10EF700000000000E8C80120E10500201001002089
:10EF8000EC000020D0A3D181D182D180D0BED0B9F5
:10EF9000D181D182D0B2D0BE2025642E20000000C5
:10EFA00018BC012025642D256400000025640000A4
:10EFB000711C8EB2691C8DB204F2624101EB8001BA
:10EFC0004988A942C7DA00BFB9F1010F00D103E0B7
:10EFD000401C21798142B9DC29E09DF8DD0204283A
:10EFE00025D100201FE004F2B24131F820500DE09D
:10EFF000BDF8EC12A94205D1B2464FF0010901213A
:10F0000068910AE0711C8EB2691C8DB204F2B241A3
:10F0100001EB80014988A942EADA00BFB9F1010F8A
:10F0200000D103E0401C61798142DCDC00BF002696
:10F030009DF8E202012869D14FF000099DF8DE0237
:10F0400003282FD1002029E004F2624131F820503A
:10F0500017E0DDEDBC0A00EE105AB8EE400AF4EEFF
:10F06000400AF1EE10FA08D100EE106AB8EE400A3C
:10F07000B0EE40AA4FF001090AE0711C8EB2691C83
:10F080008DB204F2624101EB80014988A942E0DAC5
:10F0900000BFB9F1010F00D103E0401C217981428A
:10F0A000D2DC33E09DF8DE0204282FD1002029E0D5
:10F0B00004F2B24131F8205017E0DDEDBC0A00EE59
:10F0C000105AB8EE400AF4EE400AF1EE10FA08D1F8
:10F0D00000EE106AB8EE400AB0EE40AA4FF0010907
:10F0E0000AE0711C8EB2691C8DB204F2B24101EBD0
:10F0F00080014988A942E0DA00BFB9F1010F00D1CF
:10F1000003E0401C61798142D2DC00BF09E00020AD
:10F1100068900BF1010000F0FF0BBBF1140FFFF63C
:10F12000C0AE00BF6898012800D100E0B2E600BF81
:10F1300000BF9DF8E502002873D06421FE48FDF76A
:10F14000B6F80DF22732FDA169A80FF09DFA9DF8DF
:10F15000DC22FBA1F8480FF097FAF74969A8FDF700
:10F16000B1F8BDF8EC22AFF2BC11F3480FF08CFA05
:10F170009DF8DD02032804D1F2A1EF48FDF7A2F8C3
:10F1800007E09DF8DD02042803D1EFA1EA48FDF76E
:10F1900099F89DF8DF0220B9ECA1E748FDF792F855
:10F1A00003E0EBA1E448FDF78DF89DF8E1020128AA
:10F1B00006D0022809D003280CD0042814D10EE070
:10F1C000E4A1DD48FDF77EF813E0E3A1DA48FDF79E
:10F1D00079F80EE0E1A1D848FDF774F809E0E0A164
:10F1E000D548FDF76FF804E0DEA1D348FDF76AF8D3
:10F1F00000BF00BFD04969A8FDF764F89DF8E2029E
:10F2000028B3BDF8EC22AFF25C21CB480FF03CFAFA
:10F210009DF8DD02032805D1CAA1C748FDF752F8C1
:10F2200008E03AE09DF8DD02042803D1C6A1C248F7
:10F23000FDF748F89DF8DF0220B9CBA1BE48FDF7E5
:10F2400041F813E0C9A1BC48FDF73CF80EE09DED84
:10F25000BC0A10EE101A0846FDF7E6F841EC1B0B4D
:10F2600053EC1B2BC2A1B4480FF00EFAB24969A8A7
:10F27000FDF728F8BEA169A8FDF724F89DF8E4027F
:10F2800000909DF8E3329DF8E522BAA1AA480FF05C
:10F29000FBF9A94969A8FDF715F803E04FF47A7066
:10F2A00018F0B9F9B64800680028F7D041F2883064
:10F2B00018F0B1F900BF9DF8DD02032821D19DF8B7
:10F2C000DF0270B14FF0000804F2D22030F91A804A
:10F2D0000AF1010130F8110048EA004808EE108AEE
:10F2E00030E09FEDA80AB0EE408A04F2D22030F858
:10F2F0001A0080B208EE900AB8EE680AB0EE408AB2
:10F3000020E09DF8DF0270B14FF0000804F29A305F
:10F3100030F91A800AF1010130F8110048EA00487A
:10F3200008EE108A0EE09FED970AB0EE408A04F2D4
:10F330009A3030F81A0080B208EE900AB8EE680AE7
:10F34000B0EE408A9DF8E202F0B3BCEECA0A10EEBD
:10F35000100A80B2AC909DF8DE02032824D19DF8FB
:10F36000DF0280B14FF0000804F2D220AC9930F9EE
:10F3700011800146AC98401C31F8100048EA004862
:10F3800009EE908A3BE09FED7F0AF0EE409A04F28E
:10F39000D220AC9930F8110080B209EE100AB8EE14
:10F3A000490AF0EE409A2AE09DF8DF0290B14FF052
:10F3B000000804F29A30AC9930F911800146AC98FB
:10F3C000401C31F8100000E015E048EA004809EE62
:10F3D000908A14E09FED6B0AF0EE409A04F29A30A6
:10F3E000AC9930F8110080B209EE100AB8EE490A63
:10F3F000F0EE409A03E09DEDBC0AF0EE409A9DF8D5
:10F4000040030D2817D10020AD90AE90AF90AA9088
:10F410005D4908708DF84003002201215B4802F02D
:10F42000F1FC00224FF40041594802F0EBFC4FF48C
:10F43000FA6018F0F0F89DF8E102012806D1B4EE68
:10F44000698AF1EE10FA2DD1B0902BE09DF8E1021F
:10F45000022807D1B4EEE98AF1EE10FA22DD01208C
:10F46000B0901FE09DF8E102032807D1B4EEE98ACD
:10F47000F1EE10FA16D20120B09013E09DF8E102EF
:10F4800004280FD100210020BCEEC80A10EE101A8B
:10F49000BCEEE90A10EE100A01EA00020AB10122EC
:10F4A000B09200BFB09800287CD09DF8400310B9FE
:10F4B000D198401CD19001208DF840039DF8E302C3
:10F4C000A0B1AE9890B90120AE900020AA902E482D
:10F4D0000078401C2C490870012211462B4802F08C
:10F4E00091FC0122D1032A4802F08CFC9DF8E50230
:10F4F00000287CD0AD98002879D10120AD90254816
:10F500000078002873D044F620612348006818F082
:10F51000EDF94FF0FF312148006818F0E7F90022BB
:10F52000B1A91F4803F02EFB0022B6A91C4803F026
:10F5300003FBB299B39836E008CD012025733B0058
:10F5400025643B00680000006900000049200000BD
:10F55000462000003D2000003E2000003C2000002E
:10F56000262000003F200000493B0000463B0000F1
:10F5700025663B0025642F25642F25643B00000091
:10F580001001002000000000E0050020000C0240F7
:10F590000010024070B9012000010020D0000020BE
:10F5A000B80701202DE1401A4FF47A714843B3990E
:10F5B000491CB0FBF1F05C906421B748FCF777FE82
:10F5C0004FF49671B548FCF772FE9DF8DB0200F52A
:10F5D000FA6000909DF8D9329DF8DA22B0A1AE48C9
:10F5E0000FF052F8AC49AD48FCF76CFE00E08EE03D
:10F5F0009DF8C6125C98CDE900109DF8C5329DF8C3
:10F60000C422ABA1A4480FF03FF8A349A348FCF7DC
:10F6100059FE18EE100AFCF707FF41EC1B0B53ECE8
:10F620001B2B69A99C480FF02FF89B499B48FCF7BE
:10F6300049FE9A486799FCF745FE1DF04FFC0622EB
:10F64000A1A1A54812F08CF8A44908701DF058FC3F
:10F65000A2480078C0B91DF041FCA1480068FCF741
:10F6600065FEABAB02465B909D4801689A4812F07C
:10F670000EFC9A490870984811F08AFC1DF040FC75
:10F68000FA2017F0C8FF08E094480078012804D158
:10F6900094480068401C934908601DF01FFC12222A
:10F6A00089A18D4812F05CF88C4908701DF028FC87
:10F6B0008A480078C8B91DF011FC8748C16811F06C
:10F6C000A1FD864908707548FCF730FEABAB0246D9
:10F6D00072495B90804812F0DAFB804908707E48DE
:10F6E00011F056FC1DF00CFC08E07C480078012865
:10F6F00004D17C480068401C7A4908607A48006858
:10F7000018F0CCF87948006818F0C8F800BF9DF8E8
:10F71000E402E8B3AF98D8BB0120AF90811E7448D3
:10F72000006818F0E3F84FF0FF317248006818F0F5
:10F73000DDF87148007838B370A171480EF0A4FF6D
:10F7400003207049086000206F4908604FF4FA6098
:10F7500017F061FF6D48006820F004006B490860F5
:10F760000846006840F008000860674801680068C3
:10F77000401C654A10606248405C64490839086072
:10F7800041F2883017F047FF8FA80BF051FE00E0E0
:10F790007BE05948007858B3574802785CA1584834
:10F7A0000EF072FF5648FCF7C1FD56490860002074
:10F7B000554908604FF4FA6017F02DFF5348006870
:10F7C00020F00400514908600846006840F0080035
:10F7D00008604D4801680068401C4B4A106048486A
:10F7E000405C4A49083908604FF4FA6017F013FF8B
:10F7F0004048006818F052F83D48006818F04EF88C
:10F8000043E000208DF84003AF90AD90AE98B8B1C2
:10F81000D298A8B90020AE9041480078401E4049D7
:10F8200008700846007880BB002201213D4802F0A4
:10F83000E9FA00224FF400413B4802F0E3FA24E0E9
:10F84000AE9810B3D29800B3AA98401CAA90AA9878
:10F8500000EB4002C2EBC010D299B1EB400F14D2C2
:10F860000020AE902E480078401E2D4908700846B2
:10F87000007850B9002201212A4802F0C3FA002280
:10F880004FF40041284802F0BDFA0020B090FA2061
:10F8900017F0C1FE0FE5000008CD0120DCCB0120F0
:10F8A000253032642E253032642E2530326420001B
:10F8B000253032643A253032643A253032642E25C0
:10F8C0003033643B000000004C6F674556454E5492
:10F8D0002E63737600000000B0C90120E805002007
:10F8E000EC050020B8030020D0000020000100201B
:10F8F000DC000020E0000020C60300202B2B2B00A2
:10F90000CCA00120FC020020F40200200C480040A2
:10F9100061745E736973743D25640D0A0000000014
:10F92000E0050020000C02400010024030B5044603
:10F930000D4600222946204600F002F830BD0000A6
:10F94000F0B50346012500241148407A01281CDA4D
:10F9500000200F4E767A0E4FB8553846467A001D75
:10F9600040F82630001F467A083082553E46707AAD
:10F97000461C7E72044604F1300008703A2048703C
:10F980002F2088700020C87000252846F0BD000098
:10F990002807012010B5002201B909E0012901D191
:10F9A0000A0205E0022901D10A0201E04FF4407287
:10F9B000114B1B6823F440730F4C236023461B68D4
:10F9C0001343236023461B6823F0F8032360234678
:10F9D0001B68F82494FAA4F4B4FA84F400FA04F44A
:10F9E00044F002042343044C236023461B6843F481
:10F9F0008033236010BD0000103C0240074A1268AB
:10FA000022F44072054B1A601A4612681A601A46B0
:10FA1000126842F001021A6001707047103C024007
:10FA200010B50949096821F44071074C216021464D
:10FA3000096841F4407121602146096841F00101E3
:10FA400021600260436010BD103C0240084A126809
:10FA500022F44072064B1A601A46126842F4807211
:10FA60001A601A46126842F001021A60018070475B
:10FA7000103C0240084A126822F44072064B1A6099
:10FA80001A46126842F400721A601A46126842F06E
:10FA900001021A6001607047103C0240014608787C
:10FAA000704700002348006800F0100040B1224871
:10FAB000C06940F010002049C86110201D4908604D
:10FAC0001C48006800F0200040B11B48C06940F0AD
:10FAD00008001949C86120201649086015480068C7
:10FAE00000F0400040B11448C06940F004001249E1
:10FAF000C86140200F4908600E48006800F080008F
:10FB000040B10D48C06940F002000B49C861802037
:10FB1000084908600748006800F0020040B1064844
:10FB2000C06940F020000449C86102200149086012
:10FB3000704700000C3C0240C44F012070B50446E1
:10FB4000002500201449C86102F062F9054609E069
:10FB5000601C38B124B102F05BF9401BA04201D90E
:10FB6000032070BD0D48006800F480300028EFD1FC
:10FB70000A48006800F0010010B101200749086040
:10FB80000648006800F0F20018B1FFF78BFF012073
:10FB9000E7E70020E5E70000C44F01200C3C0240ED
:10FBA000FEB5064600221146102017F0DFFA054682
:10FBB0005DB315220021284617F0D2F9044624BB74
:10FBC000FF21284617F0BCFA00BF02A9284617F00B
:10FBD00025F9044694B900200121CDE900108A02DC
:10FBE0000AA10C48029B1DF08BFF01280CD0029843
:10FBF00017F0D4F9029817F011FAE6E7029817F017
:10FC0000CDF9029817F00AFADFE7FEBD667470635B
:10FC10006D64000019FC0008C6B004464FF48671FC
:10FC200001A8FCF744FB0020414908704148E0610D
:10FC300041F288306168C1F890004FF47A706168D1
:10FC4000C1F8940005206168C1F898006068007AE6
:10FC500040F00800616808724FF0000800208DF83D
:10FC60000E00019034A011F00DF9344801682046CF
:10FC700001F032F932480088401C3149088000BF49
:10FC800044A9204617F060FB0746002F44D1449E4C
:10FC900037E0B6F80A9075682DE028780D2818D15D
:10FCA0006D1C00210DF10E0000F80810884645AAD1
:10FCB0002449FCF775FB834645AA22490020FCF73E
:10FCC0006FFB824601AB52465946204600F040F891
:10FCD00011E015F8012B404608F101080DF10E0165
:10FCE0000A54B8F1FF0F06D94FF000081648016812
:10FCF000204601F0F1F85FEA0900A9F10109CCD131
:10FD00003668002EC5D144980189204617F02FFB94
:10FD1000449818F01EF8B3E7204617F07FF90B4817
:10FD2000006817F07BF900201DF06AF9A8E70000D1
:10FD3000AA030020C0D401002F00000038030020D7
:10FD4000A803002036D3070860030020AC0300207E
:10FD50002DE9FF4FA5B017461E464FF0FF30249007
:10FD60004FF0000A32E00AEB4A01FA4A02EB810145
:10FD700048682699FCF736FB30BB0AEB4A00F54988
:10FD800001EB8000407A38B9F3480168259801F00A
:10FD9000A3F829B0BDE8F08F0AEB4A00ED4901EB6A
:10FDA000800090F900002490306803280BD00AEB03
:10FDB0004A0001EB8000007A28B1E84801682598E4
:10FDC00001F08AF8E5E704E00AF1010ABAF1130F3D
:10FDD000C9D300BF2498132874D2DFE800F00A20AA
:10FDE0004BFC67CAFBFAF9F8F7F66D747AF5F4F391
:10FDF000F2002FB9DA480168259801F06DF896E213
:10FE00003946D8A0FCF799FA08B9022000E0012091
:10FE10003060D6480168259801F05EF8EFE72FB909
:10FE2000CE480168259801F057F8E8E730680228C5
:10FE300002D03068012817D1306802280CD1394629
:10FE4000C8A0FCF77AFA38B903203060C8480168C6
:10FE5000259801F041F80CE000203060BF480168AF
:10FE6000259801F039F804E0C2480168259801F0AE
:10FE700033F8C4E727B9C0480168259801F02CF889
:10FE8000BEA13846FCF7AEFA20B1BDA13846FCF75A
:10FE9000A9FA28B9BB480168259801F01DF804E0CB
:10FEA000B9480168259801F017F8A8E7B748016834
:10FEB000259801F011F8A2E7B5480168259801F0EE
:10FEC0000BF89CE7A3E3AF480168259801F004F81C
:10FED00095E7642107A8FCF7EAF9AE480088401CC2
:10FEE000AC49088000200690059008460088001262
:10FEF0000690084600780590A74AD278A64B9B78D2
:10FF0000DDE90501CDE90032CDE90210A2484378D0
:10FF10000278A248016807A80EF0B6FB002211463D
:10FF2000102017F023F99E4908602598E0B1994800
:10FF3000028800219A48006817F012F88046B8F14C
:10FF4000000F0CD1FF219648006817F0F9F8012046
:10FF50009449087007A9259800F0BEFF08E092A117
:10FF6000259800F0B9FF03E08FA1259800F0B4FFB9
:10FF700045E727B980480168259800F0ADFF23AA1E
:10FF800096493846FCF70CFA8346FCF740FA944948
:10FF9000087023AA91490020FCF702FA8346FCF777
:10FFA00036FA8F49487023AA8C490020FCF7F8F9EB
:10FFB0008346FCF72CFA8A49887023AA87490020D7
:10FFC0000AE0F0E3F0E3B4E19CE1B1E1EDE3EAE162
:10FFD00080E150E137E039E1FCF7E2F98346FCF7D4
:10FFE00016FA7F49C8700846C07801067C488078B8
:10FFF00041EA00417A48407841EA0020784909788E
:020000040801F1
:1000000008437849086023AA74490020FCF7C8F91E
:100010008346FCF7FCF90006000C7349088023AA0C
:100020006E490020FCF7BCF98346FCF7F0F9C0B23A
:100030006D49098808436C49088052480168259831
:1000400000F04AFFDBE657480078002859D16548A0
:10005000006810B16448008820B9464801682598B6
:1000600000F03AFF00221146102017F07FF80546F5
:100070005E48E86141F288306968C1F890004FF449
:100080007A706968C1F8940005206968C1F8980021
:100090006868007A40F0080069680872524802886F
:1000A0005049284616F09CFF8046B8F1000F1CD13D
:1000B0004FF4807106F10A0010F07FFF04462CB166
:1000C0004B480168259800F007FF13E04948016894
:1000D000259800F001FF3146284600F059FD4648BA
:1000E0000168259800F0F8FE04E04448016825986E
:1000F00000F0F2FE284616F051FF284616F08EFF5B
:10010000A3E07EE022A92648006816F087FE834619
:10011000BBF1000F74D14FF4FA602299C86141F22B
:10012000883022994968C1F890004FF47A7022997A
:100130004968C1F89400052022994968C1F89800DF
:1001400022984068007A40F00800229949680872B5
:1001500058E055E050D207086803002074030020DF
:100160004C03002061646D696E00000048030020AC
:10017000440300206C0300206403002041000000C1
:10018000490000002C0300207003002034030020ED
:100190003C030020A8030020680100208403002005
:1001A000AC030020AA030020353032205061737365
:1001B000697665206D6F6465206F6620636F6E6E73
:1001C000656374696F6E206973206E6F7420737538
:1001D00070706F727465642E0D0A000034D30708C6
:1001E0009403002098030020A6030020C0D401003F
:1001F000780300202803002040030020540300203F
:1002000000BF7FE700BF4FF4807106F10A0010F0D5
:10021000D4FE04462CB1FE480168259800F05CFE2F
:100220000DE0FC480168259800F056FE3146229802
:1002300000F0AEFCF8480168259800F04DFE2298C9
:1002400016F0ACFE229816F0E9FED8E54FF4807166
:1002500006F10A0010F0B1FE044634B906F10A02B4
:10026000EEA1259800F038FE04E0F54801682598D5
:1002700000F032FEC3E527B9F2480168259800F086
:100280002BFE38782F280DD1EFA010F0FBFD38465B
:10029000FCF74CF88246BAF1010F03D90021AAF10C
:1002A00001003954384610F0EDFD044664B94FF4AE
:1002B000807106F10A0010F080FE06F10A02E3A147
:1002C000259800F009FE04E0DD480168259800F05B
:1002D00003FE94E5ECA010F0D5FD044664B94FF49C
:1002E000807106F10A0010F068FE06F10A02D7A13B
:1002F000259800F0F1FD04E0D1480168259800F050
:10030000EBFDECE327B9CF480168259800F0E4FD48
:10031000384611F015F9044624B9DCA1259800F0FF
:10032000DBFD04E0BA480168259800F0D5FDD6E36E
:1003300000BF27B9C3480168259800F0CDFD002013
:10034000049083460DE0D94951F82B10D1F81005DF
:100350003946FBF7F2FF10B90120049005E00BF1DC
:10036000010BD34800788345EDDB00BF00240498DF
:1003700098B91CF0B3FD384611F014FD04461CF08A
:10038000BFFD24B9CBA1259800F0A6FD0AE0A04846
:100390000168259800F0A0FD04E0CE48016825988A
:1003A00000F09AFD9BE34FF0FF31CB48006817F057
:1003B0009DFACA480078002870D1C948006810B179
:1003C000C848008820B9C8480168259800F084FD15
:1003D00027B99C480168259800F07EFD4FF40B700A
:1003E00018F040FBC14908600846006800286FD03B
:1003F0001CF074FD01223946BC48006811F0B0F9C8
:1004000004461CF07DFDE4BB00221146102016F0CE
:10041000ADFE0546B648E86141F288306968C1F82A
:1004200090004FF47A716868C0F8941005206968EC
:10043000C1F898006868007A40F0080168680172A5
:10044000A8480288A649284616F0CAFD8046B8F199
:10045000000F44D16F480168259800F03DFD00BFB2
:100460001CF03CFD262001F071FE21AB4FF48072A0
:1004700006F10A019D48006811F0CEFA04462620D4
:1004800000E044E001F070FE1CF03AFD0CB9219848
:1004900008B1012000E0002008B90EE04FE0002084
:1004A0000123009006F10A012846219A16F060FF08
:1004B0008046B8F1000FD3D000BF00BF4CB9B8F1EF
:1004C000000F06D154480168259800F005FD0BE0A7
:1004D0002BE088480168259800F0FEFC04E086487F
:1004E0000168259800F0F8FC8048006810F050FD85
:1004F0007E4800681CF014FD284616F04FFD284683
:1005000016F08CFD7448006817F0C8F94AE1774886
:1005100000681CF005FD3E480168259800F0DCFCF1
:100520006D48006817F0BAF93CE1744801682598F5
:1005300000F0D2FC6848006817F0B0F932E12AE018
:1005400022A96F48006816F069FC8346BBF1000FD2
:1005500020D14FF4FA602299C86141F28830229983
:100560004968C1F890004FF47A7022994968C1F83F
:100570009400052022994968C1F8980022984068A3
:10058000007A40F008002299496808720120534916
:10059000087001E000BFD3E700BF27B92948016810
:1005A000259800F099FC4FF40B7018F05BFA4F4956
:1005B00008600846006838B31CF090FC01223946F8
:1005C0004A48006811F0CCF804461CF099FCE4B9E4
:1005D00010480168259800F07FFC00BF1CF07EFCED
:1005E000262001F0B3FD21AB4FF4807206F10A0121
:1005F0003E48006811F010FA0446262001F0B4FDD0
:100600001CF07EFC14B97DE0C3E0B4E07CE060E265
:1006100078030020280300204003002032353720D3
:10062000222573222069732063757272656E7420AF
:100630006469726563746F72792E0D0A00000000A0
:100640007C030020640300202F00000032303020A3
:100650004344555020636F6D6D616E642073756304
:100660006365737366756C2E20222573222069736F
:100670002063757272656E74206469726563746F4D
:1006800072792E0D0A0000002E2E00003235302027
:100690004D4B4420636F6D6D616E642073756363B1
:1006A00065737366756C2E0D0A00000018BC01207E
:1006B000B003002032353020524D4420636F6D6D01
:1006C000616E64207375636365737366756C2E0D5C
:1006D0000A00000058030020D0000020AA030020D8
:1006E00098030020A60300206C030020A003002034
:1006F000C0D401005C0300205403002080030020CC
:10070000AC030020219808B1012000E0002000B9CE
:100710000EE000200123009006F10A01DDE921200E
:1007200016F026FE8046B8F1000F3FF457AF00BF29
:1007300000BF44B9B8F1000F05D1EB480168259816
:1007400000F0CAFB04E0E9480168259800F0C4FB0A
:10075000E748006810F01CFCE54800681CF0E0FB6E
:10076000229816F01BFC229816F058FCE14800680D
:1007700017F094F816E0DE4800681CF0D1FBDE4864
:100780000168259800F0A8FBDA48006817F086F8A1
:1007900008E0DA480168259800F09EFBD54800681B
:1007A00017F07CF89BE101E088E100E000BF4FF02A
:1007B000FF31D048006817F099F8D1480078002838
:1007C0007BD1D048006810B1CF48008820B9CF480D
:1007D0000168259800F080FB27B9CD48016825986D
:1007E00000F07AFB4FF40B7018F03CF9C049086038
:1007F00008460068002870D01CF070FB06223946BD
:10080000BB48006810F0ACFF04461CF079FB74BBD9
:1008100000221146102016F0A9FC0546BD48E861EB
:1008200041F288306968C1F890004FF47A706968C5
:10083000C1F8940005206968C1F898006868007ADA
:1008400040F0080069680872AF480288AD49284640
:1008500016F0C6FB8046B8F1000F49D1AE480168DA
:10086000259800F039FB29E0DDF8809017E054E08E
:100870001CF034FBB9F80A2021AB9D48D9F80410CC
:10088000006811F004FB04461CF03AFB24B9B9F8E7
:100890000A002199884200D204E0D9F80090B9F109
:1008A000000FE5D100BF20980189284616F05FFDB2
:1008B000209817F04EFA0CB107E046E020A9284630
:1008C00016F042FD5FEA0008CED000BF34B1874881
:1008D0000168259800F000FB05E02CE082480168E3
:1008E000259800F0F9FA8248006811F003FA04E054
:1008F0008A480168259800F0EFFA7D48006810F0FA
:1009000047FB7B4800681CF00BFB284616F086FB73
:100910007848006816F0C2FFCFE0754800681CF008
:10092000FFFA75480168259800F0D6FA714800680A
:1009300016F0B4FFC1E071480168259800F0CCFAC8
:100940006C48006816F0AAFFB7E02AE022A97448B4
:10095000006816F063FA8346BBF1000F20D14FF414
:10096000FA602299C86141F2883022994968C1F839
:1009700090004FF47A7022994968C1F894000520DC
:1009800022994968C1F8980022984068007A40F09E
:10099000080022994968087201205949087001E04D
:1009A00000BFD3E700BF27B959480168259800F078
:1009B00093FA4FF40B7018F055F84D49086008464B
:1009C0000068C8B31CF08AFA062239464848006815
:1009D00010F0C6FE04461CF093FA74BB4E48016842
:1009E000259800F079FA29E0DDF8809016E01CF0F7
:1009F00075FAB9F80A2021AB3D48D9F8041000680F
:100A000011F045FA04461CF07BFA24B9B9F80A0043
:100A10002199884200D204E0D9F80090B9F1000F82
:100A2000E5D100BF20980189229816F0A0FC2098FB
:100A300017F08FF914B108E036E027E020A92298DA
:100A400016F082FC5FEA0008CED000BF2CB1274828
:100A50000168259800F040FA04E0234801682598D1
:100A600000F03AFA2248006811F044F92048006882
:100A700010F08EFA1E4800681CF052FA229816F008
:100A8000CDFA1C48006816F009FF16E01848006807
:100A90001CF046FA18480168259800F01DFA154820
:100AA000006816F0FBFE08E014480168259800F085
:100AB00013FA1048006816F0F1FE10E019493846A4
:100AC00011F0E5F8174818A10268259800F004FA1B
:100AD00005E018480168259800F0FEF900BF00BF46
:100AE00000BFFFF756B90000400300205C03002060
:100AF000A0030020D0000020780300208003002005
:100B0000AA03002098030020A60300206C03002005
:100B100064030020C0D401002803002054030020F7
:100B2000AC030020ACBB01203231332025640D0A18
:100B300000000000680300201CB500220B490C488F
:100B400010F0CEFD20B140F2A9410AA00DF086FDC3
:100B50000020012103460A02CDE9001009A10B483B
:100B60001CF0CEFF044601201CBD00006C000020DC
:100B700070B901202E2E5C4654505C6674702E6352
:100B8000000000006674706163630000A1FB000850
:100B90002DE9F04FA5B083460C460020079042F2A5
:100BA0001071A648006816F0A1FEA5490DF13A00A3
:100BB000FBF7DEFB29200990262001F0C7FA04F19B
:100BC0000A0119A810F0DCFE0746002F71D100BF02
:100BD0001CF084F909A919A811F01EF807461CF0A9
:100BE0008FF917B99DF83A0000B91BE19DF83A005A
:100BF0002E2800D1ECE70DF13A00FBF797FB002817
:100C000075D1BDF828001421C1EB50200690BDF825
:100C10002800C0F34315BDF8280000F01F08BDF8F8
:100C20002A004FEAD029BDF82A00C0F3451A0D2D3D
:100C300045D2DFE805F044070C11161B20252A2FAA
:100C400034393F007FA107A8FBF792FB3CE07EA16F
:100C500007A8FBF78DFB37E07CA107A8FBF788FB13
:100C600032E07BA107A8FBF783FB2DE079A107A861
:100C7000FBF77EFB28E078A107A8FBF779FB23E0D0
:100C800076A107A8FBF774FB1EE075A107A8FBF788
:100C90006FFB19E073A107A8FBF76AFB14E072A1D0
:100CA00007A8FBF765FB0FE070A107A8FBF760FB47
:100CB0000AE0B8E06EA107A8FBF75AFB04E061A1C7
:100CC00007A8FBF755FB00BF00BF0DF13A0007A9CD
:100CD000CDE9039ACDF8088005900998CDE9000187
:100CE0009DF82C0000F0100010B1642001E00AE033
:100CF0002D2003465FA24FF4807104F10A000DF02D
:100D0000AFFC089081E0BDF8280040F2BC7101EB17
:100D10005020A0F5FA600690BDF82800C0F34315F6
:100D2000BDF8280000F01F08BDF82A004FEAD029BE
:100D3000BDF82A00C0F3451A0D2D44D2DFE805F0B6
:100D400043070C11161B20252A2F34393E003DA1E4
:100D500007A8FBF70DFB3BE03BA107A8FBF708FB4F
:100D600036E03AA107A8FBF703FB31E038A107A85A
:100D7000FBF7FEFA2CE037A107A8FBF7F9FA27E00A
:100D800035A107A8FBF7F4FA22E034A107A8FBF786
:100D9000EFFA1DE032A107A8FBF7EAFA18E031A14B
:100DA00007A8FBF7E5FA13E02FA107A8FBF7E0FA85
:100DB0000EE02EA107A8FBF7DBFA09E02CA107A89B
:100DC000FBF7D6FA04E01FA107A8FBF7D1FA00BF92
:100DD00000BF0DF13A0007A9CDE9039ACDF80880CC
:100DE00005900998CDE900019DF82C0000F0100055
:100DF00008B1642000E02D2003462AA24FF4807140
:100E000004F10A000DF02CFC089000200123009052
:100E100004F10A015846089A16F0AAFA064606B1E5
:100E200000E0D5E600BF262001F09EF903480068E7
:100E300016F034FD25B0BDE8F08F0000D000002092
:100E4000ECBB01204A616E00466562004D61720094
:100E5000417072004D6179004A756E004A756C00F0
:100E600041756700536570004F6374004E6F7600E4
:100E700044656300256372772D2D2D2D2D2D2D209A
:100E80003120757365722067726F7570202575202B
:100E90002530326420253032643A253032642025F2
:100EA000730D0A00256372772D2D2D2D2D2D2D20EC
:100EB0003120757365722067726F757020257520FB
:100EC0002573202530326420253032643A253032B3
:100ED000642025730D0A00000FB47CB5044608A8F1
:100EE0000190A0210848019B079A0DF0E1FB0546FF
:100EF0000020019001232A4603490090204616F065
:100F000037FA7CBC5DF814FBD0B80120F8B500249A
:100F100010A54FF47A7016F07EFB2846FBF706FA10
:100F20000646314628460AF0FDF941F6583016F0DB
:100F300072FB6A4609A10A48FBF732FA6A4609A120
:100F40000020FBF72DFA0646FBF761FA84B2204633
:100F5000F8BD000061742B63737100002000000075
:100F60001C9C01202C000000014691F8350002284D
:100F700003D08020486501207047052081F83500A6
:100F80000868006820F001000A6810600020F3E79C
:100F900031B500F03DFF0546009C601C00B1641CAB
:100FA00000BF00F035FF401BA042FAD338BD00005F
:100FB00070B505460C46002600BF95F8450001288F
:100FC00001D1022070BD012085F8450000BF02203C
:100FD00085F84400002C6DD0286806684348064018
:100FE000D4E900010843A1680843E1680843A968FF
:100FF00008432169084361690843E9680843A16916
:101000000843E1690843216A0843616A0843A16A09
:101010000843064328680660286806680120FFF731
:10102000B7FF28680660D4E90B010843616B0843E9
:10103000A16B0843E16B0843216C0843616C0843D2
:10104000A16C084329684860286846680120FFF7BA
:101050009FFF28684660E06C29688860206D2968D9
:10106000C860286886694FF641700640B4F854108D
:10107000A06D40EA0140E16D0843216E0843616EB6
:101080000843A16E0843064328688661286886697C
:101090000120FFF77DFF28688661D4E91B01084322
:1010A0002968C8612868C6690120FFF771FF2868B0
:1010B000C66110E02868066826F49046D5E902016A
:1010C0000843064328680660286806680120FFF781
:1010D0005FFF28680660012085F8440000BF0020FB
:1010E00085F8450000BF00BF6CE700000F8120FFBE
:1010F00070B504460D461646002200BF94F8450020
:10110000012801D1022070BD012084F8450000BFF4
:10111000022084F84400A56200221FE005EB421182
:101120004FF00040086044F2F4504860C2EBC21037
:1011300000EB400006EB80008860A069012803D125
:10114000486820F000404860581E904204D905EBE2
:1011500042102030C86000E0CD60521C9A42DDD3BE
:10116000206800F58050C560012084F8440000BF6D
:10117000002084F8450000BF00BFC4E770B50446F6
:101180000D461646002200BF94F84500012801D103
:10119000022070BD012084F8450000BF022084F8C1
:1011A0004400E56200221BE005EB42114FF4801081
:1011B0000860C2EBC21000EB400006EB80008860C4
:1011C000E06918B9086840F440000860581E904271
:1011D00004D905EB42102030C86000E0CD60521CFD
:1011E0009A42E1D3206800F580500561012084F81F
:1011F000440000BF002084F8450000BF00BFC8E7DE
:1012000070470146002200BF91F84500012801D136
:1012100002207047012081F8450000BF022081F8BC
:1012200044003AE0521C886A006800F44070B0F54F
:10123000007F07D1886A086301238B63886AC068CE
:1012400088622AE0886A006800F4407030B9886BD0
:10125000401C8863886AC06888621EE08B6A4B63A2
:10126000886B401C8863886B012801D1886A0863F9
:10127000886A0068C0F30D40001FC863086B83686C
:101280000B64886AC0688862012081F8440000BF4E
:10129000002081F8450000BFBBE7886A006800F0C5
:1012A000004008B9042ABDD3012081F8440000BFE2
:1012B000002081F8450000BF0120AAE710B50446D0
:1012C000206800F58050406900F0400040280FD1B0
:1012D000204600F0C1FA4021206800F580504161AD
:1012E000012084F8440000BF002084F8450016E087
:1012F000206800F58050406900F0010078B1204678
:1013000000F0A5FB0121206800F58050416101201B
:1013100084F8440000BF002084F8450000BF4FF46B
:101320008031206800F580504161206800F58050D0
:10133000406900F40040B0F5004F10D12046FFF79F
:101340005FFF4FF40041206800F5805041610120AB
:1013500084F8440000BF002084F8450000BF10BDA1
:101360002DE9FC4104460025002001909D4E0027F8
:10137000804614B90120BDE8FC8194F8440028B9E6
:10138000002084F84500204600F03AF900BF002014
:1013900000909548006840F48040934908600846F2
:1013A000006800F48040009000BF00BF8F480068D4
:1013B00020F400008D49086008460068216A08434F
:1013C0008A490860206800F58050006840F00101FB
:1013D000206800F58050016000F01AFD07460FE01C
:1013E00000F016FDC01BB0F5FA7F09D9032084F880
:1013F000440000BF002084F8450000BF0320BAE786
:10140000206800F58050006800F001000028E7D156
:101410002068056925F01C0501F0CAF806467448E5
:10142000864205D37348864202D245F008051AE089
:101430007048864205D36B48864202D245F00C05BF
:1014400011E06848864203D36B48864200D20AE026
:101450006948864205D36948864202D245F00405B0
:1014600001E045F01005206805614FF400420021BD
:10147000204600F0EDFA48B14FF001084146204601
:10148000FCF7EAFF012084F8440074E7FF20FFF72F
:101490007FFD6068002871D000F0BAFC074600BFED
:1014A00001AA0121204600F08DF900F0B1FCC01B1B
:1014B00041F2883188420FD94FF001084146204659
:1014C000FCF7CAFF012084F8440000BF002084F824
:1014D000450000BF03204EE7019800F004000428F7
:1014E000DED182020021204600F0B2FA48B14FF06E
:1014F000010841462046FCF7AFFF012084F8440074
:1015000039E700F085FC074600BF01AA012120460B
:1015100000F058F900F07CFCC01B41F28831884291
:101520000FD94FF0010841462046FCF795FF0120F6
:1015300084F8440000BF002084F8450000BF032069
:1015400019E7019800F020002028DED101AA10211F
:10155000204600F037F948B14FF0010841462046D7
:10156000FCF77AFF012084F8440004E7019800F0BA
:10157000040020B14FF40061E16002E00DE00021C1
:10158000E160019800F00200022802D10021A16070
:101590001EE04FF48041A1601AE0E068C0F3CF0084
:1015A000A168C1F34F0140EA01020021204600F08A
:1015B0004FFA48B14FF0010841462046FCF74CFF76
:1015C000012084F84400D6E640F6FF70FFF7E0FC07
:1015D00041462046FCF740FF012084F844000020EB
:1015E000C9E60000008793034438024004380140F4
:1015F000002D3101C00E160200E1F50580D1F00882
:1016000010B586B004466A49206888427ED100BF82
:1016100000BF002000906748006840F000706549F6
:1016200008600846006800F00070009000BF00BF2E
:1016300000BF002000900846006840F0806008600D
:101640000846006800F08060009000BF00BF00BF47
:10165000002000900846006840F0006008600846DE
:10166000006800F00060009000BF00BF00BF00BF36
:10167000002000900846006840F00100086008461D
:10168000006800F00100009000BF00BF00BF002014
:1016900000900846006840F00200086008460068B4
:1016A00000F00200009000BF00BF00BF00200090CB
:1016B0000846006840F0040008600846006800F032
:1016C0000400009000BF00BF00BF0020009008464B
:1016D000006840F0200008600846006800F0200024
:1016E000009000BF00BF00BF0020009008460068C7
:1016F00040F0400008600846006800F0400000909C
:1017000000BF00BF00BF0020009000E04DE0084691
:10171000006840F0800008600846006800F0800023
:10172000009000BF00BF00BF002000900846006886
:1017300040F4807008600846006800F480700090F3
:1017400000BF00BF3E2001900220029000200390C5
:10175000032004900B20059001A9174800F04AFAD5
:101760008F2001900220029000200390032004901B
:101770000B20059001A9114800F03CFA43F60350F4
:1017800001900220029000200390032004900B207F
:10179000059001A90A4800F02DFA002207213D20FA
:1017A00000F0EFFC3D2000F0DFFC06B010BD0000B3
:1017B0000080024030380240000802400000024031
:1017C000000402402DE9F04104460E46174600256C
:1017D000A84694F84400822802D10220BDE8F08196
:1017E000822084F844002068056905F01C05208AE1
:1017F0004FF4784101EAC0200543481100EA861001
:10180000054325F0020545F001052068056100F05B
:10181000FFFA804612E000F0FBFAA0EB0800B0F5FA
:10182000803F09D3012084F8440000BF002084F8E1
:10183000450000BF0320D1E72068056905F00100DD
:101840000028E8D12068406980B23860012084F81F
:1018500044000020C2E7000010B5044602480068BA
:1018600016F01CF810BD0000FC00002010B5044666
:1018700000BF94F84500012801D1022010BD0120CD
:1018800084F8450000BF022084F844002046FCF79D
:1018900041FF2046FCF716FF2046FCF79FFD20463F
:1018A000FCF77DFD2046FCF764FD012084F8440030
:1018B00000BF002084F8450000BF00BFDEE710B580
:1018C000044600BF94F84500012801D1022010BD54
:1018D000012084F8450000BF022084F8440020461F
:1018E000FCF752FD2046FCF739FD2046FCF7D6FEFA
:1018F0002046FCF773FD2046FCF7F8FE012084F833
:10190000440000BF002084F8450000BF00BFDEE7B0
:1019100070B5024600230025002400BF92F8450060
:10192000012801D1022070BD012082F8450000BFCE
:10193000022082F8440049B9012082F8440000BF27
:10194000002082F8450000BF0120ECE7D06A006863
:1019500000F0004048B1122082F8440000BF00208F
:1019600082F8450000BF0120DDE740F2F4508142DB
:1019700008D9B1FBF0F3B1FBF0F600FB161010B183
:101980005B1C00E00123012B13D1D06A006840F0FA
:101990004050D66A3060C1F30C00D66A7060D06ADD
:1019A000006840F00040D66A3060D06AC068D062FB
:1019B00032E000242EE0D06A006820F04050D66A61
:1019C00030602CB9D06A006840F08050D66A306030
:1019D00040F2F450D66A7060581EA04210D1D06A0E
:1019E000006840F00050D66A3060581EC0EBC0104E
:1019F00000EB4000A1EB8005C5F30C00D66A7060D7
:101A0000D06A006840F00040D66A3060D06AC06892
:101A1000D062641C9C42CED3106800F580504069AF
:101A200000F0040048B10426106800F580504661BB
:101A30000026106800F580504660012082F84400BE
:101A400000BF002082F8450000BF00BF6BE7704771
:101A50002DE9F04104460E4617460025A84694F8A5
:101A60004400422802D10220BDE8F081422084F8DF
:101A700044002068056905F01C05208A4FF4784170
:101A800001EAC0200543481100EA8610054345F0ED
:101A9000020545F00105B8B221684861206805617A
:101AA00000F0B6F9804612E000F0B2F9A0EB0800B1
:101AB000B0F5803F09D3012084F8440000BF002026
:101AC00084F8450000BF0320CEE72068056905F0D3
